:020000040800F2
:1080000000000120A98F0008F98F0008F98F0008EF
:10801000F98F0008F98F0008F98F000800000000B0
:10802000000000000000000000000000F98F0008C0
:10803000F98F000800000000F98F0008E18E0008A9
:1080400000000000F98F0008F98F0008F98F000880
:10805000F98F0008F98F0008098300081D830008C4
:1080600031830008458300085983000800000000A0
:108070000000000000000000000000000000000000
:108080000000000000000000F98F00080000000060
:10809000000000000000000000000000F98F000850
:1080A000F98F0008F98F0008F98F0008F98F000890
:1080B000F98F0008F98F000800000000F98F000810
:1080C000F98F0008F98F0008F98F0008F98F000870
:1080D000F98F000800000000000000000000000010
:1080E000F98F0008F98F0008F98F000800000000E0
:1080F0000000000000000000000000000000000080
:1081000000000000F98F000800000000F98F00084F
:10811000000000000000000000000000000000005F
:10812000000000000000000000000000000000004F
:10813000000000000000000000000000000000003F
:10814000000000000000000000000000F98F00089F
:10815000000000000000000000000000000000001F
:10816000F98F0008F98F00080000000000000000EF
:1081700000000000000000000000000000000000FF
:1081800000000000F98F000800000000000000005F
:04819000F98F00085B
:1081940010B5054C237833B9044B13B10448AFF33D
:1081A40000800123237010BDAC00002000000000FB
:1081B4004490000808B5034B1BB103490348AFF3CF
:1081C400008008BD00000000B000002044900008BA
:1081D40080B584B000AF78600123FB607B68002B1E
:1081E40002D10023FB6025E07B681B78052B05D1B9
:1081F4000721002000F006FCF86006E07B681B788D
:108204001946002000F0FEFBF860786800F0ACF836
:10821400F860786800F08CF9F860786800F0D4F9B8
:10822400F860786800F0B4FAF8600021786800F02B
:108234005FFBF860FB6818461037BD4680BD80B50B
:1082440084B000AF78600123FB607B68002B02D10F
:108254000023FB6004E00121786800F077FBF860FC
:10826400FB6818461037BD4680BD80B584B000AFAA
:1082740078600123FB607B68002B02D10023FB6044
:1082840025E07B681B78052B05D10721002000F031
:10829400B9FBF86006E07B681B781946002000F003
:1082A400B1FBF860786800F05FF8F860786800F077
:1082B4003FF9F860786800F087F9F860786800F0B2
:1082C40067FAF8600021786800F012FBF860FB6838
:1082D40018461037BD4680BD80B584B000AF7860C5
:1082E4000123FB607B68002B02D10023FB6004E0C8
:1082F4000121786800F02AFBF860FB681846103703
:10830400BD4680BD80B500AF024B1B68984700BFD7
:1083140080BD00BFCC00002080B500AF024B5B687D
:10832400984700BF80BD00BFCC00002080B500AFDF
:10833400024B9B68984700BF80BD00BFCC00002063
:1083440080B500AF024BDB68984700BF80BD00BF1B
:10835400CC00002080B500AF024B1B69984700BFDA
:1083640080BD00BFCC00002080B485B000AF786031
:108374000123FB607B68002B02D10023FB60CEE06D
:108384007B689B78032B00F2C78001A252F823F08C
:10839400A58300080584000863840008C1840008DC
:1083A4007B681B781A46614B53F822301A687B6845
:1083B4005B785B00012101FA03F3DB4319467B6818
:1083C4001B781846594B53F820300A401A607B68D2
:1083D4001B781A46554B53F822301A687B685B7831
:1083E4005B000133012101FA03F3DB4319467B6887
:1083F4001B7818464D4B53F820300A401A608EE023
:108404007B681B781A46494B53F822301A687B68FC
:108414005B785B00012101FA03F319467B681B7842
:108424001846424B53F820300A431A607B681B7885
:108434001A463E4B53F822301A687B685B785B001F
:108444000133012101FA03F3DB4319467B681B78EE
:108454001846364B53F820300A401A605FE07B68B8
:108464001B781A46314B53F822301A687B685B78C4
:108474005B00012101FA03F3DB4319467B681B7897
:1084840018462A4B53F820300A401A607B681B7840
:108494001A46264B53F822301A687B685B785B00D7
:1084A4000133012101FA03F319467B681B7818464E
:1084B4001E4B53F820300A431A6030E07B681B7867
:1084C4001A461A4B53F822301A687B685B785B00B3
:1084D400012101FA03F319467B681B781846134BF4
:1084E40053F820300A431A607B681B781A460F4BF6
:1084F40053F822301A687B685B785B0001330121F2
:1085040001FA03F319467B681B781846074B53F8A6
:1085140020300A431A6002E00023FB6000BFFB68BE
:1085240018461437BD465DF8047B704700000020F0
:1085340080B485B000AF78600123FB607B68002BBA
:1085440002D10023FB6036E07B68DB78002B02D08D
:10855400012B17D02CE07B681B781A46194B53F873
:1085640022301A687B685B78194601238B40DB4311
:1085740019467B681B781846124B53F820300A4082
:108584001A6018E07B681B781A460E4B53F82230A9
:108594001A687B685B78194601238B4019467B680F
:1085A4001B781846074B53F820300A431A6002E040
:1085B4000023FB6000BFFB6818461437BD465DF816
:1085C400047B70474800002080B485B000AF786019
:1085D4000123FB607B68002B02D10023FB60CEE00B
:1085E4007B681B79032B00F2C78001A252F823F0A9
:1085F4000586000865860008C386000821870008F0
:108604007B681B781A46614B53F822301A687B68E2
:108614005B785B00012101FA03F3DB4319467B68B5
:108624001B781846594B53F820300A401A607B686F
:108634001B781A46554B53F822301A687B685B78CE
:108644005B000133012101FA03F3DB4319467B6824
:108654001B7818464D4B53F820300A401A608EE0C0
:108664007B681B781A46494B53F822301A687B689A
:108674005B785B00012101FA03F319467B681B78E0
:108684001846424B53F820300A431A607B681B7823
:108694001A463E4B53F822301A687B685B785B00BD
:1086A4000133012101FA03F3DB4319467B681B788C
:1086B4001846364B53F820300A401A605FE07B6856
:1086C4001B781A46314B53F822301A687B685B7862
:1086D4005B00012101FA03F3DB4319467B681B7835
:1086E40018462A4B53F820300A401A607B681B78DE
:1086F4001A46264B53F822301A687B685B785B0075
:108704000133012101FA03F319467B681B781846EB
:108714001E4B53F820300A431A6030E07B681B7804
:108724001A461A4B53F822301A687B685B785B0050
:10873400012101FA03F319467B681B781846134B91
:1087440053F820300A431A607B681B781A460F4B93
:1087540053F822301A687B685B785B00013301218F
:1087640001FA03F319467B681B781846074B53F844
:1087740020300A431A6002E00023FB6000BFFB685C
:1087840018461437BD465DF8047B7047600000202E
:1087940080B485B000AF78600123FB607B68002B58
:1087A40002D10023FB6099E07B685B79012B34D014
:1087B400022B61D0002B40F08E807B681B781A4618
:1087C4004A4B53F822301A687B685B785B000121BE
:1087D40001FA03F3DB4319467B681B781846434BC5
:1087E40053F820300A401A607B681B781A463F4BC6
:1087F40053F822301A687B685B785B0001330121EF
:1088040001FA03F3DB4319467B681B781846374BA0
:1088140053F820300A401A6060E07B681B781A46DF
:10882400324B53F822301A687B685B785B00012175
:1088340001FA03F319467B681B7818462B4B53F84F
:1088440020300A431A607B681B781A46274B53F87A
:1088540022301A687B685B785B000133012101FADE
:1088640003F3DB4319467B681B7818461F4B53F808
:1088740020300A401A6031E07B681B781A461B4B93
:1088840053F822301A687B685B785B00012101FA97
:1088940003F3DB4319467B681B781846134B53F8E4
:1088A40020300A401A607B681B781A460F4B53F835
:1088B40022301A687B685B785B000133012101FA7E
:1088C40003F319467B681B781846084B53F820308D
:1088D4000A431A6002E00023FB6000BFFB681846ED
:1088E4001437BD465DF8047B704700BF7800002054
:1088F40080B485B000AF786039600123FB607B6889
:10890400002B02D10023FB6017E07B681B781A461A
:108914000D4B53F822301B687A68527823FA02F21E
:108924007B681B781946084B53F8213002F001028A
:108934001A601B68DAB23B681A70FB681846143771
:10894400BD465DF8047B70473000002080B485B0DC
:1089540000AF78600B46FB700123FB607B68002B43
:1089640002D10023FB6035E0FB78002B02D0012B01
:1089740017D02CE07B681B781A461A4B53F8223028
:108984001A687B685B78194601238B40DB431946E0
:108994007B681B781846134B53F820300A401A6042
:1089A40018E07B681B781A460E4B53F822301A687D
:1089B4007B685B78194601238B4019467B681B78DA
:1089C4001846084B53F820300A431A6002E000238B
:1089D400FB6000BFFB6818461437BD465DF8047B96
:1089E400704700BF1800002080B582B000AF01239B
:1089F4007B6000F029FA78607B6818460837BD462A
:108A040080BD000080B584B000AF03463960FB71BF
:108A14000123FB60FB79032B1ED801A252F823F03B
:108A2400358A00083F8A0008498A0008538A0008EA
:108A3400386800F019F8F86011E0386800F0A2F81E
:108A4400F8600CE0386800F0B3F8F86007E03868C4
:108A540000F062F9F86002E00023FB6000BFFB68ED
:108A640018461037BD4680BD80B485B000AF78602D
:108A74000123FB607B68162B78D801A252F823F0FF
:108A8400E18A0008F18A0008018B0008118B0008B4
:108A9400218B0008718B0008718B0008318B000852
:108AA400718B0008718B0008718B0008718B0008B2
:108AB400418B0008718B0008718B0008718B0008D2
:108AC400718B0008718B0008718B0008718B000892
:108AD400718B0008518B0008618B0008284B1B6BBD
:108AE400274A43F001031363FB6042E0244B1B6BF2
:108AF400234A43F002031363FB603AE0204B1B6BF1
:108B04001F4A43F004031363FB6032E01C4B1B6BEE
:108B14001B4A43F008031363FB602AE0184B1B6BEA
:108B2400174A43F010031363FB6022E0144B1B6BE2
:108B3400134A43F080031363FB601AE0104B1B6B72
:108B44000F4A43F480531363FB6012E00C4B1B6B1E
:108B54000B4A43F400131363FB600AE0084B1B6BDE
:108B6400074A43F480031363FB6002E00023FB60C5
:108B740000BFFB6818461437BD465DF8047B704798
:108B84000038024080B485B000AF78600123FB60F8
:108B9400064B5B6B054A43F080035363FB60FB6841
:108BA40018461437BD465DF8047B70470038024010
:108BB40080B485B000AF78600123FB607B681C2B18
:108BC40000F29E8001A252F823F000BF458C0008F9
:108BD400558C0008658C0008758C0008058D00080C
:108BE400058D0008058D0008058D0008058D000819
:108BF400058D0008058D0008858C0008058D00088A
:108C0400058D0008958C0008A58C0008058D0008CA
:108C1400B58C0008058D0008058D0008058D000839
:108C2400C58C0008D58C0008E58C0008058D00086B
:108C3400058D0008058D0008058D0008F58C0008D9
:108C4400344B1B6C334A43F001031364FB605AE05A
:108C5400304B1B6C2F4A43F002031364FB6052E059
:108C64002C4B1B6C2B4A43F004031364FB604AE057
:108C7400284B1B6C274A43F400631364FB6042E0F7
:108C8400244B1B6C234A43F001031364FB603AE05A
:108C9400204B1B6C1F4A43F480431364FB6032E097
:108CA4001C4B1B6C1B4A43F400431364FB602AE017
:108CB400184B1B6C174A43F400331364FB6022E027
:108CC400144B1B6C134A43F400131364FB601AE047
:108CD400104B1B6C0F4A43F480031364FB6012E0D7
:108CE4000C4B1B6C0B4A43F400031364FB600AE057
:108CF400084B1B6C074A43F080531364FB6002E08B
:108D04000023FB6000BFFB6818461437BD465DF8BE
:108D1400047B70470038024080B485B000AF7860AF
:108D24000123FB607B68122B00F2828001A252F8BF
:108D340023F000BF858D0008358E0008358E0008AD
:108D4400358E0008958D0008A58D0008358E000825
:108D5400358E0008B58D0008358E0008358E000864
:108D6400C58D0008D58D0008E58D0008F58D000837
:108D7400358E0008058E0008158E0008258E000823
:108D8400304B5B6C2F4A43F001035364FB6052E0A9
:108D94002C4B5B6C2B4A43F010035364FB604AE09A
:108DA400284B5B6C274A43F020035364FB6042E08A
:108DB400244B5B6C234A43F480735364FB603AE0B6
:108DC400204B5B6C1F4A43F400635364FB6032E046
:108DD4001C4B5B6C1B4A43F480535364FB602AE0D6
:108DE400184B5B6C174A43F400535364FB6022E056
:108DF400144B5B6C134A43F480435364FB601AE0E6
:108E0400104B5B6C0F4A43F480335364FB6012E0F5
:108E14000C4B5B6C0B4A43F400335364FB600AE075
:108E2400084B5B6C074A43F480235364FB6002E005
:108E34000023FB6000BFFB6818461437BD465DF88D
:108E4400047B70470038024080B483B000AF012334
:108E54007B60114B1B68104A43F00103136000BF91
:108E64000D4B1B685B080C4A03F001031360002BD5
:108E7400F6D0094B9B68084A23F001039360064B24
:108E84009B68054A23F0020393607B6818460C37FD
:108E9400BD465DF8047B70470038024080B483B05F
:108EA40000AF01237B600C4B1B680B4A23F00103CA
:108EB4001360094B00225A60074B00229A60064B4C
:108EC4001B68054A23F0020313607B6818460C37BD
:108ED400BD465DF8047B704710E000E080B500AF4C
:108EE400084B1B68012B01D1FFF7D8FF064B1B6809
:108EF4009847064B1B681B0C044A03F001031360DC
:108F040000BF80BDC80000200C01002010E000E07C
:108F140080B500AF00F01CF80948FFF7DDF9024600
:108F2400084B1A600848FFF7D7F90246054B1A6048
:108F34000648FFF784F90246024B1A60ECE700BFCB
:108F440094000020900000209C000020A400002039
:108F540080B500AFFFF748FD02460E4B1A600021B2
:108F64000020FFF74FFD02460A4B1A600A48FFF73C
:108F74007CF90246074B1A600848FFF776F9024667
:108F8400044B1A600648FFF723F90246014B1A60A6
:108F940000BF80BD90000020940000209C000020B1
:108FA400A40000200D488546AFF300800C480D490D
:108FB4000D4A002302E0D458C4500433C4188C4230
:108FC400F9D30A4A0A4C002301E013600432A24296
:108FD400FBD300F011F8FFF79BFFFEE70000012030
:108FE40000000020AC00002064900008AC000020C9
:108FF40010010020FEE7000070B50D4E0D4CA41BBF
:10900400A4100025A54209D10B4E0C4C00F018F811
:10901400A41BA4100025A54205D170BD56F8253027
:1090240098470135EEE756F8253098470135F2E7C1
:109034005C9000085C9000085C9000086090000858
:10904400F8B500BFF8BC08BC9E467047F8B500BF31
:08905400F8BC08BC9E46704701
:04905C00B9810008CE
:0490600095810008EE
:10906400000002400004024000080240000C0240DC
:1090740000100240001C024014000240140402408C
:1090840014080240140C024014100240141C024044
:10909400100002401004024010080240100C02406C
:1090A40010100240101C024004000240040402405C
:1090B40004080240040C024004100240041C024054
:1090C400080002400804024008080240080C02405C
:1090D40008100240081C02400C0002400C0402402C
:1090E4000C0802400C0C02400C1002400C1C024004
:1090F4000100000000000100010000000001010067
:0C9104000100000000020100010000005A
:0400000508008FA9B7
:00000001FF
